:040000006F70C02538
:100004000000000000000000CE170000D21700001E
:10001400000000005A720000000000000000000010
:100024005A7200005A720000000000000000000034
:100034005A720000000000005A7200000000000024
:100044005A7200005A7200005A7200005A7200007C
:100054005A7200005A7200005A7200005A7200006C
:100064005A7200005A7200005A7200005A7200005C
:100074005A7200005A7200005A7200005A7200004C
:100084005A7200005A7200005A7200005A7200003C
:100094005A7200005A7200005A7200005A7200002C
:1000A4005A7200005A7200005A7200005A7200001C
:1000B4005A7200005A7200005A7200005A7200000C
:1000C4005A7200005A7200005A7200005A720000FC
:1000D4005A7200005A7200005A7200005A720000EC
:1000E4005A7200005A7200005A7200005A720000DC
:1000F4005A7200005A7200005A7200005A720000CC
:10010400000000005A7200005A7200005A72000087
:100114005A7200005A7200005A7200005A720000AB
:100124005A7200005A7200005A7200005A7200009B
:100134005A7200005A7200005A7200005A7200008B
:100144005A7200005A7200005A7200005A7200007B
:100154005A7200005A7200005A7200005A7200006B
:100164005A7200005A7200005A7200005A7200005B
:100174005A7200005A7200005A7200005A7200004B
:100184005A7200005A7200005A7200005A7200003B
:100194005A7200005A7200005A7200005A7200002B
:1001A400000000000000000000000000000000004B
:0C01B4000000000000000000000000003F
:1001C000011122CE00102326A4FE8327C4FE99E34A
:1001D000814735A00327C4FEBD4763E0E7028327BC
:1001E000C4FE1387F7FF8327C4FEF98F99C78327BF
:1001F000C4FE0547B317F70019A08327C4FE3E8548
:10020000724405618280011106CE22CC00102326A3
:10021000A4FE2324B4FE832784FE99E3814799A892
:100220000327C4FEB7070140636EF7000327C4FE2F
:10023000B70702406378F7008545032584FEEF5039
:10024000100305A80327C4FEB7070040636EF7003C
:100250000327C4FEB70701406378F70085450325EF
:1002600084FEEF50B00231A08545032584FEEF5097
:10027000207E81473E85F24062440561828079712B
:1002800006D622D40018232EA4FC232CB4FC8327EA
:1002900084FD2326F4FE8327C4FEA1EF232404FE5D
:1002A0003DA8178700001307E732832784FE8A07DB
:1002B000BA979C430327C4FD631EF700178700000D
:1002C00013078732832784FE8A07BA979C43232625
:1002D000F4FE19A8832784FE85072324F4FE032750
:1002E00084FE9147E3FFE7FA8327C4FE99E3A95709
:1002F00039A085450325C4FEEF50607781473E85D0
:10030000B250225445618280797122D60018232E82
:10031000A4FCB7170240DC432322F4FE9707002019
:10032000938747D69C43032744FE11833D8B9786D2
:1003300000009386A62C369703470700B3D7E70043
:100340002326F4FE0327C4FDB7070140636FF700BF
:100350000327C4FDB70702406379F700832744FEF3
:10036000AD839D8B2324F4FE39A0832744FEA18313
:100370009D8B2324F4FE032784FE8D4763FBE70057
:10038000832784FEF5170327C4FEB357F7002326FF
:10039000F4FE8327C4FE3E85325445618280797124
:1003A00006D622D40018232EA4FCB7170240DC4343
:1003B0002324F4FE0327C4FDB7070140636FF70051
:1003C0000327C4FDB70702406379F700832784FE43
:1003D000AD839D8B2326F4FE39A0832784FEA18361
:1003E0009D8B2326F4FE0325C4FD393F2322A4FE62
:1003F0000327C4FE8D4763F6E700832744FE860784
:1004000019A0832744FE3E85B25022544561828064
:10041000397106DE22DC8000232EA4FC232CB4FCE0
:10042000232AC4FC2328D4FC2326E4FC8327C4FD10
:100430002326F4FE832784FDC207C1832310F4FE24
:10044000832704FD81C7832704FD11A08D47232244
:10045000F4FE832744FD2324F4FE930704FEBE85A7
:100460000325C4FEEF40304D032744FD930780046D
:100470006308F700032744FD930780026311F70226
:100480008327C4FC918B99C78327C4FE032784FD6F
:1004900098CB31A08327C4FE032784FDD8CB8147A6
:1004A0003E85F250625421618280797122D6001813
:1004B000232EA4FC232604FE232404FEA9A81387CC
:1004C0000188832784FE8E07BA979C430327C4FDC7
:1004D000631AF700832784FE1397370093870188F8
:1004E000BA97A9A88327C4FE95E3138701888327B9
:1004F00084FE8E07BA97DC4391EB832784FE139723
:10050000370093870188BA972326F4FE832784FE59
:1005100085072324F4FE032784FE8D47E3F1E7FAE1
:100520008327C4FE91CB8327C4FE0327C4FD98C351
:100530008327C4FE23A207008327C4FE3E853254CE
:1005400045618280797122D60018232EA4FC2326CF
:1005500004FE9DA8138701888327C4FE8E07BA97DF
:100560009C430327C4FD631CF7041387018883277A
:10057000C4FE8E07BA97DC436353F00413870188E7
:100580008327C4FE8E07BA97DC431387F7FF938651
:1005900001888327C4FE8E07B697D8C313870188C6
:1005A0008327C4FE8E07BA97DC438DE71387018843
:1005B0008327C4FE8E07BA9723A0070021A88327AC
:1005C000C4FE85072326F4FE0327C4FE8D47E3F30C
:1005D000E7F811A00100325445618280011122CE5A
:1005E00000102326A4FE2324B4FE032784FE914793
:1005F000630BF704032784FE914763EBE7040327AB
:1006000084FE8D47630CF702032784FE8D4763E168
:10061000E704032784FE85476308F700032784FE69
:1006200089476308F7002DA08327C4FE93874703FB
:100630000DA08327C4FE9387870321A88327C4FEC8
:100640009387C70339A08327C4FE9387070411A0AB
:1006500081473E857244056182805D7186C6A2C471
:10066000A6C28008232EA4FA232CB4FA8547232699
:10067000F4FE91AC832784FBD8578327C4FEB3577D
:10068000F700858B638B07228327C4FEFD17232287
:10069000F4FE832744FE960793870703032784FB12
:1006A000BA972320F4FE032744FEBA878607BA9739
:1006B0008E079387070B032784FBBA97232EF4FC3E
:1006C000832744FE9D07960793870703032784FB30
:1006D000BA97232CF4FC930744FC414681453E85A0
:1006E000EF603035832704FEDC4399C7832704FE7F
:1006F000DC43C207C18319A0930700062312F4FC50
:10070000832704FE9C4799C7832704FE9C47C207A2
:10071000C18311A085472313F4FC8327C4FDDC4B60
:1007200089CF832704FEDC4B99C7832704FEDC4B6B
:10073000C207C18321A0914711A081472314F4FC73
:10074000832704FE9C43C207C1832315F4FC83273F
:1007500004FEDC4799C7832704FEDC47C207C18338
:1007600011A081472316F4FC832704FE9C4F99C7F0
:10077000832704FE9C4FC207C18311A08147231722
:10078000F4FC832704FE9C4BC207C1832318F4FCAE
:10079000832704FEDC4FC207C1832319F4FC03271F
:1007A000C4FE8D47630CF7040327C4FE8D4763E442
:1007B000E7060327C4FE85476308F7000327C4FE46
:1007C00089476300F70281A8930744FCBE8503258F
:1007D000C4FBEF50B065A1450325C4FBEF60804A20
:1007E00081A8930744FCBE850325C4FBEF50506EDF
:1007F000A1450325C4FBEF60004A1DA8930744FCF4
:10080000BE850325C4FBEF50307AA1450325C4FB08
:10081000EF60004A31A8930744FCBE850325C4FB62
:10082000EF60E005A1450325C4FBEF6080490100AE
:10083000832784FD9C43D9C3832784FD9843832762
:1008400084FD9C47BE853A851D3C232AA4FC832752
:1008500044FD81C7832744FDADA8832784FD9C4FB9
:1008600089C7832784FD9C4F21A0832784FDDC4713
:100870002324F4FE832784FE81E7E1472324F4FE4A
:10088000832784FD8443832784FD83D747003E85E7
:10089000053AAA85832784FDD44B832784FDDC4F4A
:1008A0003E87032684FE2685A536232AA4FC8327BB
:1008B00044FD89C7832744FD29A801008327C4FE7E
:1008C00085072326F4FE0327C4FE9147E3F4E7DA05
:1008D00081473E85B64026449644616182803971E5
:1008E00006DE22DC80002326A4FC8327C4FC9C4374
:1008F0002326F4FE8327C4FE2324F4FE8327C4FCAE
:10090000DC43BE850325C4FEFD382322A4FE8327D5
:1009100044FE81C7832744FEA1AA930784FD29468C
:1009200081453E85EF60F0108327C4FCDC4BC20795
:10093000C183231CF4FC8327C4FC9C4F99C78327E5
:10094000C4FC9C4FC207C18311A08147231DF4FC46
:100950008327C4FCDC4FC207C183231EF4FC83271A
:10096000C4FC9C53C207C183231FF4FC8327C4FC2F
:10097000DC5393F7F70F2300F4FE930784FDBE8545
:10098000032584FEEF5090388325C4FC032584FEA4
:10099000E9312322A4FE832744FE81C7832744FE36
:1009A000C1A88327C4FC83A7871AC207C18393F712
:1009B000F70F139707014183832784FE2392E704EF
:1009C0008327C4FC83A747198DC3832784FE83D75D
:1009D00047041397070141838567D98F1397070150
:1009E0004183832784FE2392E7048327C4FC83A7E3
:1009F00007198DC3832784FE83D747041397070104
:100A000041839167D98F139707014183832784FE20
:100A10002392E704832784FE83D7470413970701B3
:100A20004183E177D98F139707014183832784FEA0
:100A30002392E7048327C4FC9C4B8DC7832784FE45
:100A400083D7C7001397070141838327C4FC9C4BBE
:100A5000C207C183D98F139707014183832784FE7F
:100A60002396E7008545032584FEEF60A077814744
:100A70003E85F250625421618280011122CE001025
:100A80002326A4FE2324B4FE2322C4FE8327C4FE0F
:100A900081C7832744FE99E3A9572DA08327C4FE6D
:100AA000032744FE98C38327C4FE032784FED8C3CC
:100AB000832784FE99C7832744FE9843832784FEB7
:100AC00098C381473E85724405618280011122CE20
:100AD00000102326A4FE8327C4FE99E3A95711A87A
:100AE0008327C4FE23A007008327C4FE23A2070098
:100AF00081473E85724405618280797106D622D491
:100B00000018232EA4FC8327C4FD89C78327C4FDB6
:100B10009C4399E3A95781A88327C4FD9C439C4328
:100B20003E8561322326A4FE8327C4FE99E3D15774
:100B30001DA88327C4FEDC4391EF8327C4FD9C439B
:100B40003E85713B2324A4FE832784FE81C783272F
:100B500084FE11A88327C4FEDC4313871700832774
:100B6000C4FED8C381473E85B2502254456182807D
:100B7000797106D622D40018232EA4FC8327C4FD45
:100B800089C78327C4FD9C4399E3A9572DA88327D0
:100B9000C4FD9C439C432326F4FE0325C4FE5D3222
:100BA0000325C4FE19322324A4FE832784FE89C7AB
:100BB000832784FEDC4399E78327C4FE81453E8575
:100BC000EF50506081473E85B2502254456182808B
:100BD000397106DE22DC80002326A4FC2324B4FC29
:100BE0002322C4FC2320D4FC8327C4FC89C7832789
:100BF000C4FC9C4399E3A957FDA88327C4FC9C43EC
:100C00009C43832584FC3E85D13A2324A4FE83277C
:100C100084FE81C7832744FC99E3A957E9A8832769
:100C2000C4FC9C439C432322F4FE8327C4FC9C43C6
:100C30009C433E85EFF0AFF62320A4FE032704FE7D
:100C4000832744FCB357F702C183232EF4FC832788
:100C5000C4FD13871700832744FCB307F70203275B
:100C600004FEB357F702FD17232CF4FC832784FD01
:100C700099E3A95749A08327C4FD1397070141832E
:100C8000832744FE2394E702832784FD13970701FB
:100C90004183832744FE2396E702032704FC93073E
:100CA000400663EDE700032784FD832704FC330738
:100CB000F70293074006B357F70219A0832704FCF5
:100CC0002326F4FE0327C4FE832784FD63F6E70092
:100CD000832784FD2326F4FE8327C4FE1397070190
:100CE0004183832784FE2390E700832744FE054742
:100CF000239AE70081473E85F25062542161828049
:100D0000797122D60018232EA4FC232CB4FC83274F
:100D1000C4FD89C78327C4FD9C4399E3A9571DA837
:100D20008327C4FD9C439C432326F4FE8327C4FEF3
:100D300083D7C700139707014183832784FDC20728
:100D4000C183D98F1397070141838327C4FE23965C
:100D5000E70081473E85325445618280797122D611
:100D60000018232EA4FC232CB4FC8327C4FD81CBC4
:100D70008327C4FD9C4381C7832784FD99E3A9573A
:100D800015A08327C4FD9C439C432326F4FE8327A0
:100D9000C4FE83D74702C207C1833E87832784FDF1
:100DA00098C381473E85325445618280797106D669
:100DB00022D40018232EA4FC232CB4FC232AC4FC28
:100DC0008327C4FD81CB8327C4FD9C4381C7832730
:100DD00044FD99E3A95725A88327C4FD9C439C4360
:100DE000832584FD3E85EFF06FFF2326A4FE832735
:100DF000C4FE99E3A95721A88327C4FE83D707001F
:100E0000C207C1833E87832744FD98C381473E853F
:100E1000B250225445618280011106CE22CC0010CE
:100E20002326A4FE2324B4FE832584FE0325C4FECA
:100E30003537AA873E85F240624405618280011100
:100E400022CE00102326A4FE2324B4FE930780FAAA
:100E50003E85724405618280797106D622D40018DD
:100E6000232EA4FC8327C4FD89C78327C4FD9C438C
:100E700099E3A9570DA08327C4FD9C439C432326D7
:100E8000F4FE8327C4FE2390070281450325C4FE98
:100E9000EF50503381473E85B250225445618280E5
:100EA000797106D622D40018232EA4FC232CB4FC7E
:100EB0008327C4FD89C78327C4FD9C4399E3A957B1
:100EC00071A0032784FD9147630AF702032784FD7D
:100ED000914763E9E702032784FD85476308F7002C
:100EE000032784FD89476307F70029A88547232640
:100EF000F4FE19A889472326F4FE39A08D4723263E
:100F0000F4FE19A0A95799A08327C4FD9C439C43D4
:100F10002324F4FE832784FE83D78700C207C1837E
:100F2000E19B1397070141838327C4FEC207C18356
:100F3000D98F139707014183832784FE2394E70009
:100F40008545032584FEEF50F02781473E85B2504A
:100F5000225445618280011122CE00102326A4FE76
:100F6000930780FA3E85724405618280011122CE8A
:100F700000102326A4FE2324B4FE8327C4FE89C7C1
:100F80008327C4FE9C4399E3A95729A88327C4FE5D
:100F90009C439C433E87832784FEC207C183231260
:100FA000F70281473E85724405618280011122CE9D
:100FB00000102326A4FE2324B4FE8327C4FE89C781
:100FC0008327C4FE9C4399E3A95729A88327C4FE1D
:100FD0009C439C433E87832784FEC207C18323161C
:100FE000F70281473E85724405618280011122CE5D
:100FF00000102326A4FE2324B4FE8327C4FE81CB45
:101000008327C4FE9C4381C7832784FE99E3A957A5
:1010100031A88327C4FE9C439C4383D7C702C207E1
:10102000C1833E87832784FE98C381473E857244EF
:1010300005618280011122CE00102326A4FE232404
:10104000B4FE8327C4FE89C78327C4FE9C4399E36B
:10105000A95729A88327C4FE9C439C433E87832726
:1010600084FEC207C1832314F70281473E85724480
:1010700005618280011122CE00102326A4FE2324C4
:10108000B4FE8327C4FE81CB8327C4FE9C4381C763
:10109000832784FE99E3A95731A88327C4FE9C4384
:1010A0009C4383D78702C207C1833E87832784FE80
:1010B00098C381473E85724405618280797122D64A
:1010C0000018232EA4FC232CB4FC8327C4FD89C75D
:1010D0008327C4FD9C4399E3A95799A08327C4FDA6
:1010E0009C439C432326F4FE8327C4FE83D707003A
:1010F000C207C18393F7F7CF139707014183832773
:1011000084FDC207C18393F70730C207C183D98F1B
:101110001397070141838327C4FE2390E70081478B
:101120003E85325445618280011122CE0010232673
:10113000A4FE2324B4FE8327C4FE81CB8327C4FEF0
:101140009C4381C7832784FE99E3A95739A8832745
:10115000C4FE9C439C4383D70700C207C18313F797
:101160000730832784FE98C381473E85724405611A
:101170008280797122D60018232EA4FC232CB4FC83
:101180008327C4FD89C78327C4FD9C4399E3A957DE
:10119000BDA08327C4FD9C439C432326F4FE8327E4
:1011A00084FD93F707062324F4FE032784FDC1473B
:1011B0006314F700C14711A081472322F4FE83275F
:1011C000C4FE83D70700C207C18393F7F7F81397CC
:1011D00007014183832784FEC207C183D98F1397F8
:1011E00007014183832744FEC207C183D98F139728
:1011F000070141838327C4FE2390E70081473E8592
:10120000325445618280797122D60018232EA4FCC5
:10121000232CB4FC8327C4FD81CB8327C4FD9C43CE
:1012200081C7832784FD99E3A9571DA08327C4FDA7
:101230009C439C4383D70700C207C1832326F4FE47
:101240008327C4FE13F70707832784FD98C38147CC
:101250003E85325445618280797122D60018232E52
:10126000A4FC8327C4FD89C78327C4FD9C4399E35D
:10127000A9573DA08327C4FD9C439C432326F4FE2D
:101280008327C4FE83D70700C207C18393E70708FB
:101290001397070141838327C4FE2390E70081470A
:1012A0003E85325445618280797122D60018232E02
:1012B000A4FC8327C4FD89C78327C4FD9C4399E30D
:1012C000A9573DA08327C4FD9C439C432326F4FEDD
:1012D0008327C4FE83D70700C207C18393F7F7F7BC
:1012E0001397070141838327C4FE2390E7008147BA
:1012F0003E85325445618280011106CE22CC001019
:101300002326A4FE8327C4FE89C78327C4FE9C43EB
:1013100099E3A95711A88327C4FE9C439C438545A4
:101320003E85EF50206A81473E85F2406244056168
:101330008280011106CE22CC00102326A4FE832732
:10134000C4FE89C78327C4FE9C4399E3A95711A80B
:101350008327C4FE9C439C4381453E85EF508066B5
:1013600081473E85F240624405618280797106D6EC
:1013700022D40018232EA4FC8327C4FD89C7832709
:10138000C4FD9C4399E3A9573DA08327C4FD9C431A
:101390009C432326F4FE8327C4FE83D70701C2079C
:1013A000C183858B99E3ED5739A085450325C4FE9C
:1013B000EF50506381473E85B25022544561828090
:1013C000411102C602C4371702401C43C166D58FC3
:1013D0001CC3B71702409C4337070200F98F3EC475
:1013E000B24785073EC6A24789E732478567E312C1
:1013F000F7FEB71702409C4337070200F98F89CBED
:1014000085473EC4224785476306F7004101828035
:1014100002C4CDBFB7170240D843D8C3D843D8C3FE
:10142000D84313670740D8C3D843B706C1FFFD169A
:10143000758FD8C3D843B7062900558FD8C39843B2
:10144000B7060001558F98C3B71702409C43370772
:101450000002F98FF5DBB7170240D843719BD8C360
:10146000D84313672700D8C3B7170240DC43B18BBA
:101470002147E39BE7FE59BF411106C69137B240B1
:1014800041018280411106C6B71702409843136795
:10149000170098C3D843B706FFF8758FD8C3984391
:1014A000B706F7FEFD16758F98C39843B706FCFF85
:1014B000FD16758F98C3D843B70681FFFD16758F4B
:1014C000D8C39843B70600ECFD16758F98C337074D
:1014D000FF0098C723A607024537B240410182802A
:1014E000B7170240DC43B18B1147638CE7042147F7
:1014F0006382E70691CBB7177A009387072017F727
:10150000FF1F2321F7B809A8B7177A009387072090
:1015100017F7FF1F2328F7B6B7170240DC43918364
:10152000BD8B17F7FF1F1307E7ADBA9783C60700F8
:1015300017F7FF1F130707B51C43B3D7D7001CC30A
:101540008280B7177A009387072017F7FF1F232B96
:10155000F7B2D9B7371702405C435843C166758F5D
:10156000C983BD8B890789466386D704BD466385D9
:10157000D704C1466385D704814645466384C704C2
:1015800039EF3747024003270780418B15CF3717C4
:101590007A0013070720B387E70217F7FF1F2323FB
:1015A000F7AEBDDA17F7FF1F1307C7AD1C438583DE
:1015B0001CC39DB7C94775BF8546B5477DBF8146EA
:1015C000BD477DBFC1476DBF37173D00130707906B
:1015D000B387E70217F7FF1F2326F7AAD9B73717F4
:1015E0000240584337060200718F01CF37173D0084
:1015F00013070790B387E70217F7FF1F2324F7A805
:101600004DB737177A0013070720B387E70217F79C
:10161000FF1F2329F7A671B797F7FF1F83A787A698
:1016200037177A0013070720B3D7E70293F7F70FAE
:101630002381F1841307803EB387E70217F7FF1F6A
:101640002312F7A88280B7F700E0D843799BD8C36C
:1016500003C721843306A702814690CBD4CB98439D
:101660001367070198C398431367170298C3B7F726
:1016700000E0DC43858BE5DF37F700E01C43F99B96
:101680001CC38280B7F700E0D843799BD8C317F713
:10169000FF1F035727A33306A702814690CBD4CB65
:1016A00098431367070198C398431367170298C3B9
:1016B000B7F700E0DC43858BE5DF37F700E01C433C
:1016C000F99B1CC38280797106D622D42A84854571
:1016D00011651105EF40A03993070020231AF1008E
:1016E0008D473ECCE1473ECE4C08371501401305EF
:1016F0000580EF30502422C223140100231501007D
:101700002316010023180100A1472317F1004C0004
:101710003744014013050480EF40407B85451305A5
:101720000480EF40500DB250225445618280411137
:1017300006C6B70700E023A00738F93D05459937ED
:10174000B24041018280011106CE22CC26CA4AC88D
:101750004EC62E84B289814435A0930500043745D6
:10176000014013050580EF40702B65D91309140063
:10177000834504003745014013050580EF405019AB
:1017800085044A84E3CB34FD4E85F2406244D24462
:101790004249B24905618280AA8717F5FF1F0325D8
:1017A000A58EAA9717070020130787E363EDE700CC
:1017B00017670020130707456369F70017F7FF1F36
:1017C0002324F78C82807D5582807D558280730032
:1017D000203001A0411106C6EF00102E9126EF0027
:1017E000702EEF10A018EF00D02CEF00702EF5BF78
:1017F000AA871307800873300780034505002380FC
:10180000B70073200780828003C705009307800814
:1018100073B0078083470500630AF7001307800849
:10182000732007802380F500014582802300C500D6
:101830009307800873A00780054582802DC1411160
:1018400006C622C426C24AC02A8497D4FFFF9384C6
:10185000647B637895041C41A1CFDC4BA1CF014987
:101860001C4003C74702635AE902DC4B13172900E7
:10187000BA978843EF20201421C1637195041C415D
:1018800089C783C72702858B99E7EF2040506915E8
:10189000854763F7A7020509E1B7014521A0014586
:1018A00082800145B2402244924402494101828033
:1018B0000145CDBF0145FDB70545EDB70545DDB790
:1018C0000545CDB72DC1411106C622C426C24AC066
:1018D0002A8497D4FFFF9384E472637895041C41B3
:1018E000A1CFDC4BA1CF01491C4003C74702635A7B
:1018F000E902DC4B13172900BA978843EF20A00BAD
:1019000021C1637195041C4189C783C72702858B58
:1019100099E7EF20C0477515894763E7A7020509D6
:10192000E1B7014521A0014582800145B240224432
:1019300092440249410182800145CDBF0145FDB776
:101940000545EDB70545DDB70545CDB7797106D637
:1019500022D426D24AD04ECE52CCAA8902C66C00DE
:10196000EF00C07D59CD2A89B247C1CF814411A073
:101970008504B24763D7F40893972400CA97884335
:10198000EF2060032A846DD597D7FFFF9387876781
:10199000E370F5FEEF20A03F61DD9D47E30AF5FC13
:1019A00081452285EF2080422285EF20003B2A8A54
:1019B0004E85EF204000EF20403A2A87D2861776E6
:1019C0000000130626C9977500009385A5CB054531
:1019D000EF1070482285EF2040382A844E85EF10A2
:1019E000907DEF2080372A87A286177600001306A5
:1019F00066C6977500009385E5C80545EF006076DB
:101A000085BFB250225492540259F249624A45614C
:101A10008280411106C622C426C22A84EF0060716A
:101A2000AA84EF00607189CC634E0400635EA40059
:101A30000A04A2948840B240224492444101828028
:101A40000545D5BF0545C5BF0545F5B782808280F0
:101A50009387418485460F00500F2FA7071401E795
:101A60002FA6D71C7DFA11E301A08280411106C682
:101A700022C42A84EF20403345C189476310F5060C
:101A80002285EF20802DAA8617760000130646C017
:101A900097750000938505BF0145EF10D03B228567
:101AA000EF20A02BAA8617760000130666BE977556
:101AB0000000938525BD0145EF00A06A2285EF2037
:101AC000C029AA8517750000130505C0EF10103E48
:101AD00017750000130545C1A53F01A02285EF2021
:101AE000C027AA86177600001306C6C097750000A7
:101AF000938545B90545EF1010362285EF20E02586
:101B0000AA86177600001306E6BE97750000938537
:101B100065B70545EF00E064B24022444101828090
:101B20008280397106DE22DC26DA4AD84ED6177654
:101B30000000130666BE977500009385A5B409459D
:101B4000EF107031A30F0100230F0100F5232ACC01
:101B500002CA02C2FDA42685EF202020AA8617769D
:101B600000001306A6BE977500009385A5B10D452C
:101B7000EF10702EB24785073EC63247E2476358E2
:101B8000F728324579352A84EF10F062AA8422853D
:101B9000692B2A89E34004FE5D21E35DA4FCF9D8AA
:101BA00097D7FFFF93870746E3F6F4FC2685EF20DF
:101BB000001E69D19C4089C783C72702858BC1FF5E
:101BC0002685EF20C01C8D47E306F5FA2685EF2019
:101BD000001C9147E300F5FA26858D3145E1630F3E
:101BE000090E2685EF206017AA892685EF20801828
:101BF0002A87CE8617760000130686BC97750000EC
:101C0000938545A80945EF101025268502992A8954
:101C100063030514930740F76308F51C994526856F
:101C2000EF20C01A2685EF204013AA864A87177630
:101C30000000130666BF977500009385A5A40145B3
:101C4000EF1070212685EF204011AA864A8717766B
:101C50000000130666BD977500009385A5A2014597
:101C60000923A285268519352285CD318347E101D7
:101C7000850793F7F70F230FF100EDBD2685993106
:101C800009C5A24785073EC4F5B581452685EF20E5
:101C9000E0138347E101850793F7F70F230FF10066
:101CA0002685EF20800BAA86177600001306C6ABA8
:101CB000977500009385059D0545EF10D019268581
:101CC000EF20A009AA86177600001306E6A99775EB
:101CD00000009385259B0545692169BD2685EF2078
:101CE000C0072A8901C58347050091E781452685FC
:101CF000EF20C00D41B52685EF20C0072A87CA8690
:101D000017760000130646A99775000093858597FE
:101D10000545EF1050142685EF20C0052A87CA8696
:101D200017760000130646A79775000093858595E2
:101D30000545052981452685EF204009A285268590
:101D40003533228521318347E101850793F7F70F6A
:101D5000230FF10005B58D452685EF202007DC44D3
:101D600089CBD84319CF81452685EF20601B2A896E
:101D700001ED8347F101850793F7F70FA30FF100FA
:101D8000D5BB9C43EDF3F5B799452685EF200004BC
:101D90002685EF10907CAA864A87177600001306E6
:101DA000A6A3977500009385E58D0145EF10B00A55
:101DB0002685EF10907AAA864A87177600001306C8
:101DC000A6A1977500009385E58B0145592EA28544
:101DD0002685693922859D3E8347E101850793F772
:101DE000F70F230FF10079B32685EF101077AA863D
:101DF00017760000130646A0977500009385858826
:101E00000945EF105005A24785073EC4A5B3A24778
:101E1000638E07102247D247630CF702A2473ECADF
:101E2000924622478506177600001306A6A79775E7
:101E30000000938525850945EF10F001924785073D
:101E40003EC21247894763C3E70E02C402C635B3D8
:101E5000A24612470507177600001306A69E97753F
:101E60000000938525820145EF10E07EA2461247CF
:101E70000507177600001306E69C9775000093850A
:101E800065800145F92C02C801A8854711A0854746
:101E900095C7C24785073EC84247E2476358F708DF
:101EA0004245853EEF1030312A8465D197D7FFFF38
:101EB00093874715E37DF5FC8147D9BF2285EF1055
:101EC000106D8D47E307F5FC2285EF10506C9147AC
:101ED000E301F5FC2285FD324DDD81452285EF10C1
:101EE000F06E8347E101850793F7F70F230FF100A9
:101EF0002285EF109066AA861776000013060698D2
:101F000097650000938505780145EF10C074228520
:101F1000EF10B064AA861776000013062696976520
:101F200000009385257601452D2CA5B78346F10148
:101F30000347E10117760000130606999765000034
:101F4000938545740945EF1000710345E101F25096
:101F50006254D2544259B25921618280411106C65D
:101F600022C426C24AC0177600001306E69797657A
:101F70000000938525710945EF10E06D752A13095E
:101F8000F5FF31A089452285EF1050647D19634427
:101F900009084522931729003E9504412685EF1034
:101FA00090212A8465D597D7FFFF9387A705E37F04
:101FB000F5FCEF10D05D75158947E3E9A7FC268590
:101FC000BD22AA8761D122858297AA8445DD228518
:101FD000EF10B058AA862687177600001306C6931E
:101FE000976500009385056A0145EF10C06622855C
:101FF000EF10B056AA862687177600001306C69102
:1020000097650000938505680145A12A99452285B9
:10201000EF10D05BA5BF0145B24022449244024973
:102020004101828019E993172500AA978E07176549
:1020300000001305A55D3E9582800145828005451F
:10204000828019E17D558280411106C622C426C2D4
:102050002A848144635890007D55B24022449244C2
:102060004101828093972400A6978E07176700008E
:102070001307C759BA97A2858843EF50801C19C12E
:102080008504C9BF2685D1BF19E17D5582804111E4
:1020900006C622C426C2AA840144635880007D5526
:1020A000B240224492444101828093172400A297B7
:1020B0008E071767000013076755BA97884783474D
:1020C000050089C7A685EF50C01719C10504F1B7EF
:1020D0002285F9B729C9411106C622C426C22A841D
:1020E0008347050099E77D55B2402244924441015F
:1020F00082808144635490007D55FDB793972400FE
:10210000A6978E071767000013074750BA97C84372
:102110008347050089C7A285EF50A01219C1850425
:10212000D1BF2685D1B77D5582800145828001458A
:1021300082801385018182800545828009E523A084
:1021400005000145828023A00500E5BF09E523A025
:1021500005000145828023A00500E5BF014582807E
:102160008280011136C63AC83ECA42CC46CE0561CD
:102170008280014582800145828001CD411106C6E1
:10218000AA87176500001305E57D8297B2404101DB
:1021900082808280411106C6737004301766000089
:1021A0001306867E97750000938585800945EF109C
:1021B000804A6D2E21C10965130505F42522EF2003
:1021C000A00621E5EF20E05629ED81450145EF20ED
:1021D000C06E85472384F184177600001306868736
:1021E000976500009385C57C0945EF10C046B24055
:1021F00041018280176600001306067C9765000087
:102200009385057BEF102045DDB7176600001306A8
:10221000A67D976500009385A5790545EF10A0433D
:1022200055B7176600001306667E97650000938514
:1022300025780145EF102042177500001305058031
:10224000212E411106C6177600001306E682976517
:1022500000009385E5750945EF10E03FEF20206A07
:10226000EFF03F8C15E90565130585BB6924D5247E
:1022700081450545EF206064EF20207A1776000045
:102280001306C68497650000938585720945EF1093
:10229000803CB24041018280AA8617760000130676
:1022A0002680976500009385A5700545EF10A03A3C
:1022B0005DBF736004308280411106C6E13DB240CB
:1022C00041018280411106C6AD3FB240410182808A
:1022D000411106C6B52CF128E121EF001011B240E2
:1022E00041018280011106CE22CC26CA83C7018516
:1022F00081CB81442685F2406244D24405618280CC
:102300002A842AC2FD573EC43EC64C001385018A6A
:10231000EF1040441DE51385018AEF100044AA84A4
:102320001DE185472388F184A28617660000130605
:10233000267C976500009385657D0945EF10A031E7
:1023400055BFED5445BFED5475B783C7018591E383
:102350008280411106C61385018AEF10204117665D
:1023600000001306267B976500009385257A0945B2
:10237000EF10602EB2404101828083C7018591E356
:102380008280411106C622C41384018A2285EF107F
:10239000403E1448176600001306067B9765000050
:1023A0009385C5760945EF10002BB24022444101C8
:1023B000828083C7018591E38280411106C613851F
:1023C000018AEF10E039B2404101828029C5B1C5D0
:1023D00083A7C1841D47636EF70093963700138768
:1023E000018A369748CB0CCF850723A6F184014597
:1023F0008280411106C6A146176600001306467684
:1024000097650000938585700145EF10C024115534
:10241000B240410182802955828029558280411134
:1024200006C622C426C24AC00144A9A81317340014
:102430009387018ABA97C84BEF003059AA8617666E
:10244000000013066674976500009385256C0145AE
:10245000EF1060203DA01389018A3A9903254901B4
:10246000EF00B056AA8683278901268717660000E9
:102470001306467497650000938545690145EF1082
:10248000801D050483A7C1846371F406131734000B
:102490009387018ABA97C84B6DD5EF00B053AA84D1
:1024A00051D5131734009387018ABA979C4FE36480
:1024B000F5FA8607E377F5FC931734001389018A50
:1024C0003E9903254901EF005050AA8683278901D0
:1024D000268717660000130626719765000093850E
:1024E000E5620545EF10201769BFB24022449244CF
:1024F00002494101828083C7118599C301458280C9
:10250000411106C68547A388F184176600001306AB
:10251000A670976500009385655F0945EF10A013CD
:102520000145B2404101828011C583C7118589C729
:1025300001458280295582805555828011C583C707
:10254000118589C701458280295582805555828031
:10255000828023AA01848280411106C6EF10C02127
:10256000EF10200EEF10800E0100FDBF03A7418584
:10257000914763E9E700138741851C4385071CC326
:1025800005458280411106C6176500001305856A5E
:10259000E137411106C6EF10A01EB2404101828012
:1025A0009307700463EBA7000A0593870190AA972D
:1025B0008CC323A0C71223A0D7248280828082806C
:1025C00001458280014582800145828001458280EB
:1025D000014582800145828001458280828082801F
:1025E00045C5797106D622D426D24AD04ECEAA84C9
:1025F000EF00E07759E16C002685EF20E05835EDDB
:102600003244930994000F00F00F8547A304F400AF
:102610001C40484082970F00F00FA30404001309E8
:1026200084000F00F00F23040400114681451305B8
:10263000A400EFF0EF9B61D1A30501000147914693
:1026400005469305B1004A85EFF00F9C4DD5A28554
:102650002685EF20204145D10F00F00F230009000F
:102660000F00F00F85472380F9001C4048408297F7
:102670000F00F00F238009004DBFB2502254925436
:102680000259F24945618280828015C5411106C612
:1026900022C42A848347051093F7F70F89E7B240D5
:1026A000224441018280EF00806C75F92300041000
:1026B00022853D37EDB78280411106C6414693859C
:1026C00001D4138501C8EF200036238001D8B24021
:1026D00041018280411106C64146938501D413858C
:1026E00001C8EF204034238001D8B24041018280EC
:1026F000011106CE22CCA307010025C12A841C416A
:10270000B9CB0147914605469305F1002105EFF04D
:10271000AF8F19CDA285138501C8EF20A03415E530
:1027200085472380F1D80145F240624405618280EB
:10273000834794000F00F00F93F7F70FF5D30F00C6
:10274000F00F85472305F400E1BF0F00F00F2304CD
:1027500004001155D1BF2955C1BF2955F1B79307C1
:10276000700463EEA702411106C622C4AA8513179E
:10277000250093870190BA97984303A4071203A5F5
:10278000072411CB029701C519C022859537B240A5
:1027900022444101828065DC2285993FCDBF828041
:1027A000411106C6138501C8CD35B2404101828072
:1027B0000D818280411106C622C426C2AA84034428
:1027C00005022285F53713173500938781DDBA9707
:1027D000938687009C4711A09C436386D70003C75C
:1027E000C7FFE36BE4FE93864402D843D4C398D476
:1027F000DCD014C3938681DDDC4205473317A70084
:10280000D98FDCC2B24022449244410182804111FE
:1028100006C622C42A8403450502593F9307440291
:102820001454585098C2145454C35CD01CD4131779
:102830003500938781DDBA97138787009C4763062D
:10284000F700B240224441018280938681DDD84264
:102850008547B397A70093C7F7FFF98FDCC2D5B7B9
:1028600083A701E011A09C43138701E06387E70081
:1028700083A607FE5845E378D7FE9306C502D843E2
:10288000D4C318D95CD514C3828083A701E0138711
:1028900001E06387E704138547FD03A707FE83A6CE
:1028A00081DD158F634FE002411106C6D443984382
:1028B00098C2D44354C39CC3DCC3ED3D83A701E05D
:1028C000138701E0638BE700138547FD03A707FE2D
:1028D00083A681DD158FE35BE0FCB240410182807D
:1028E0008280828003A5C1DD0DC5411106C6EF407F
:1028F000B01FFD47898F8E07138781DDBA97138735
:10290000870088476309A7001305C5FDB240410150
:102910008280014582800145D5BF03A581DD82808B
:1029200003A581858280014719A8931637009387F4
:1029300081DDB6979386870094C7D4C705078D4776
:10294000E3F5E7FE938781DD138701E098D7D8D7B9
:1029500023A0070023A2070023A8070223AA070237
:10296000054798DFD8DF238007048280411106C61F
:102970001305803EEF00F06001C5B2404101828046
:10298000938781DD23A8070205472380E70498DFAA
:10299000EDB7C5C24DC1FD4763E1C70A81471D4779
:1029A0006364F7081308400333880703138781DD46
:1029B0004297784319C38507DDB7411106C622C483
:1029C00026C2138781DD13084003B387070393876B
:1029D0000704BA9713844700C8C354C02300C40235
:1029E00018432E97938607012FA0E6081387C70088
:1029F0002F20B708238A0700232A040013878702A1
:102A000058D018D4938707035CD41CD8F324003023
:102A1000737004302285A935A18889E82285B240E7
:102A200022449244410182800145828073600430D7
:102A3000F5B70145828001458280014582804111C0
:102A400006C6138781DD1C43BE950CC39307471E42
:102A50002FA0B7081D3D0145B240410182804111C0
:102A600006C683A501E11385C1FBD13FB2404101F8
:102A7000828015C9797106D622D42A8402C602C87A
:102A800002CA02CC02CE08592AC601C5EFE01F8E49
:102A900011C50145B2502254456182804C5C1385BA
:102AA000C1FB713FFDB70145828083C781E191EF92
:102AB00083A701E0138701E06388E70003A781E0B3
:102AC00001C703A7C1E009E782807300501082802C
:102AD000797106D622D426D283A707FE138781DD1B
:102AE0001443958F445B41647D14335494026363B3
:102AF000F4003E84B3848402ADC002C602C802CA98
:102B000002CC02CE03A581E02AC601C58145EFE0D3
:102B1000EFC526CA23AA81E0324501C5A685EFE0AC
:102B2000EFC87300501002CE324509CD6C08EFE0BB
:102B3000EFA209E9F24799C703A7C1E0B3D5E702BD
:102B400063F2E70283A5C1E02ECA324519C1EFE066
:102B5000EFC5938781DD985FD8DFB250225492543D
:102B600045618280138781DD5C5F8D8F5CDF13851B
:102B7000C1FBF135C1BF411106C622C426C2F324F0
:102B8000003073700430B93B31C12A844931A188C7
:102B900099C0736004305C4091CB9384818580C080
:102BA0002285829723A004005C489DC7F32400304F
:102BB0007370043022856D31A18899C07360043030
:102BC0000145B2402244924441018280A18899C0CB
:102BD00073600430D93DEDB7184483A781DDBA97FF
:102BE0001307C4002F20F708D1B7411106C613857B
:102BF000C1FB5137B24041018280F327003073702E
:102C00000430584119CB184119E3184505E3A18B4D
:102C100095C77360043041558280054758C118C577
:102C2000A18B99C37360043001458280050718C5E4
:102C3000A18B99C373600430014582804155828025
:102C40000547AF2705106395E700AF26051CF5FA89
:102C5000FD1799E301458280415582801DC185475A
:102C600063E3B7020CC1930745000F00500F2FA07C
:102C70000708930785000F00500F2FA00708014594
:102C80008280295582802955828059CD797106D656
:102C900022D426D24AD04ECE52CC56CAAE8417E7A2
:102CA000FF1F130727DAB306E54013D48640B79712
:102CB000E338938797E33304F4026319E5069387B7
:102CC0004186A29783C70700A5C763C50606ADCD99
:102CD00013193400B30A8900A20ABA9A8567D697F5
:102CE00003DA078C23170100231601009305E10086
:102CF0005685EF10307B83D74A000357E100998F48
:102D0000C207C18363F44701014535A074005286B0
:102D1000A6855685EF10705915E90355C100330596
:102D200045411335150001A801458280014521A0C8
:102D3000014511A00145B250225492540259F24962
:102D4000624AD24A456182800145F5B70145E5B73F
:102D5000138701861C4385071CC3828083A70186D5
:102D600091C7138701861C43FD171CC3828083A76C
:102D7000018689E7732520347D8182800545828024
:102D800005C18DC115C20CC150C1814731A0338727
:102D9000F500230007008507E3EBC7FE01458280AD
:102DA000295582802955828029558280411106C685
:102DB00005469385418613850100D937B24041010C
:102DC0008280411106C66146938581011385010306
:102DD000453FB2404101828031C11C41B1C35C41D9
:102DE000B1C37326003073700430814711A085078A
:102DF000584163FEE70018413E978346070093F66B
:102E0000F60FF5F685462300D7003E8511A07D55C7
:102E10009377860089CB7360043082802955828045
:102E2000295582802955828015C51C4195C763C7E5
:102E300005025C4163F6F502F3270030737004303D
:102E400018412E9723000700A18B89CF73600430AF
:102E500001458280295582802955828029558280AA
:102E6000295582800145828005C11C4185C363C10B
:102E70000502584163F0E502AE9703C507001375DC
:102E8000F50F3335A00082800145828001458280A4
:102E9000014582800145828019C523200500232237
:102EA0000500014582802955828001CD73270030BD
:102EB000737004305C4191E318C185075CC1014522
:102EC00082802955828009CD5C4189CFFD175CC184
:102ED00081EF1C41A18B99CB736004300145828046
:102EE000295582800145828001458280014582808A
:102EF00003A5C1FB828011E18280011106CE22CCA4
:102F000026CA4AC84EC6AA84E537AA892A89014436
:102F100039A0050489679387077163EF8700C93F6C
:102F2000B307354163FA970073005010D137E302BD
:102F3000A9FE2A890144F9BFF2406244D2444249C1
:102F4000B2490561828041110E052AC6B247138736
:102F5000F7FF3AC6E5FF41018280828082804111FD
:102F600006C6EF40403FB24041018280411106C693
:102F7000EF40003F0145B2404101828025C101116F
:102F800006CE22CC26CA4AC84EC62A842E89C5330C
:102F900021E9854763E82705232004001385010301
:102FA000253DAA846342050493171500AA978A0752
:102FB00093898104BE99CA854E854D3111E923203C
:102FC0003401F2406244D2444249B24905618280F0
:102FD000A68513850103893D5155E5B729558280A2
:102FE0007D55C5B72955F1BF5155E1BF0DCD4111F3
:102FF00006C622C426C24AC0AA842E84368995C534
:10300000AD4763F6C702A5330DE5854763E52703A2
:10301000CA852285A13115E180C0B2402244924484
:10302000024941018280295582802955FDB72955E1
:10303000EDB77D55DDB72955CDB75155F9BF4111D4
:1030400006C68545253FB24041018280411106C632
:103050008546693FB24041018280411106C68145E3
:10306000313FB24041018280411106C68146BD3FD9
:10307000B24041018280411106C685450137B24008
:1030800041018280411106C685468D37B24041011B
:10309000828029CD411106C622C42A84C93909E992
:1030A000938781046366F400938781166366F40056
:1030B000B240224441018280930744000F00500F28
:1030C0002FA00708930784000F00500F2FA00708B8
:1030D000938781041D8C0984B7B5AAAA9385B5AAE4
:1030E000B305B402138501038133D9B7828021C9A6
:1030F000411106C622C426C24AC02A84AE8485393C
:1031000029E12285DD3C1DC19DCCFD576396F4026B
:1031100001492285DD3419C9FD57E38CF4FEC93B12
:10312000B3072541E3E797FE1305C0F8B2402244F8
:103130009244024941018280653B2A89D9BF2955C1
:1031400082807D55E5B71305C0F8CDB729C9411177
:1031500006C622C42A84213929E5732700307370FA
:1031600004301C4485C3854663E4F602232404002E
:1031700023220400218B19C373600430B24022441F
:1031800041018280218B19C3736004306D55FDB7F6
:10319000FD171CC4218B7DD373600430C5B729553E
:1031A00082807D55E1BF130580FA828063070800A5
:1031B00023200800130580FA82802955828073003D
:1031C0005010F5BF8280014582801765000013050D
:1031D000E5A8828001458280411106C6114693858B
:1031E000C18513858116693EB240410182801DCDA3
:1031F000411106C622C42A8413858116F13E634913
:10320000050293173500138701183E970F00500FE2
:103210002F20070893860100B69785462382D7188A
:1032200018C00145B2402244410182802955828064
:103230005155CDBF11CD99CD9D4763FFC7000F00FC
:10324000500F2FA00508238205000CC10145828084
:1032500029558280295582802955828001CD834756
:1032600045009DCB938701186366F5009387011A8B
:103270006363F5008280411106C60F00500F2F20B6
:103280000508938701181D8D9355354013858116C8
:10329000613EB240410182800F00500F2F2005088F
:1032A000828021C5411106C622C426C24AC02A8492
:1032B000AE8479320DC585CCFD57638FF4000D398E
:1032C0002A892285B53A01CD2531B3072541E3EAA4
:1032D00097FE1305C0F821A022859D3275FDB240EE
:1032E000224492440249410182802955828013057B
:1032F000C0F8F5B701C985470F00500F2F20F5081A
:103300000545828001458280411106C6E537B240FD
:10331000410182808280011106CE22CC26CA4AC891
:103320004EC649C5D1C59307F5FFE98FA5EB93F7C5
:103330003500C9E393D42500330495029307F4FFC5
:10334000E18FB1EF9307002063E887061385010042
:103350006134AA8963440506931735003389A700B1
:10336000220997D5FF1F9385E56D2E9905674A972A
:103370002320978CAA97A2079387070C13160401A2
:103380004182BE954A85EF10006A19E94A85F240EC
:103390006244D2444249B24905618280029002905F
:1033A000CE851385010049340149CDB70149F9BFE4
:1033B0000149E9BF0149D9BF0149C9BF0149F9B76D
:1033C00029C117D7FF1F1307E767B306E54093D559
:1033D0008640B797E338938797E3B385F502631286
:1033E000E50293874186AE9783C7070099CB63CAEE
:1033F0000600411106C6138501003D34B24041016B
:1034000082808280411106C622C426C22A84AE84EC
:10341000B93A19C50145B240224492444101828023
:10342000A6852285EFF07F86FDB7411106C6EFF035
:10343000DF85B24041018280797106D622D426D23E
:103440004AD04ECE52CC56CA2A84AE89B2840532B6
:1034500063120510630A041017D7FF1F1307875E56
:10346000B306E44013D98640B797E338938797E3D0
:103470003309F902631CE40E93874186CA9783C718
:1034800007006387070E63C7060E6387090E93174D
:103490003900CA97A2073E978567BA9703DA078C67
:1034A0002317010023160100FD576387F402B1E4DE
:1034B000131439004A94220497D7FF1F9387875823
:1034C0003E949305E1002285EF10C07D8357E10013
:1034D00063F44707014541A03A849305E1003A852A
:1034E000EF10407C31A09305E1002285EF10807B36
:1034F0008357E100E3E947FF65BFDD3AAA8A131469
:1035000039004A94220497D7FF1F9387A7533E940C
:103510009305E1002285EF10E0788357E100E3F99D
:1035200047F9F93233055541637A95049305E10073
:103530002285EF102077D5B774005286CE8522857C
:10354000EF10006915ED0355C100330545411335F2
:10355000150011A00145B250225492540259F2496B
:10356000624AD24A456182800145F5B70145E5B717
:103570000145D5B70145C5B70145F1BF0145E1BFDB
:103580000145D1BF41CD011106CE22CC26CA4AC881
:10359000AE8497D6FF1F9386E64A3306D5409357ED
:1035A00086403797E338130797E3B387E702631939
:1035B000D506138741863E970347070025C7634515
:1035C0000606B5C9B68513973700B306F700A206FD
:1035D000AE960566B29603D9068C23170100231612
:1035E00001003304F70022042E949305E1002285A4
:1035F000EF10406B8357E10063F42701014535A0CC
:1036000074004A86A6852285EF10805C1DE503556F
:10361000C100330525411335150001A801458280FD
:10362000014521A0014511A00145F2406244D24468
:103630004249056182800145CDBF0145FDB7029039
:103640008280F3270030737004308280F3270030CB
:10365000737004308280397106CE22CC328436D623
:103660003AD83EDA42DC46DE05CA7C103EC695C931
:103670001755000013050560EF00F06CB245228578
:10368000EF303074175500001305455FEF00B06B45
:10369000F240624421618280175400001304C45C2C
:1036A000E9B7975500009385A55CD9B7397106CE67
:1036B00022CC2A842ED232D436D63AD83EDA42DC14
:1036C00046DE1DC55C103EC6175500001305455B60
:1036D000EF007067B2452285EF30B06E17550000DD
:1036E0001305455BEF003066F24062442161828041
:1036F0001754000013044457F1B7397106CE22CC99
:10370000328436D63AD83EDA42DC46DE15CA7C1020
:103710003EC605CD2E86AA8517550000130505580F
:10372000EF007062B2452285EF30B0691755000096
:1037300013054556EF003061F240624421618280FA
:103740001754000013044452D9B71755000013054D
:10375000A554C9B7130580FA8280130580FA8280C8
:10376000130580FA8280130580FA8280130580FA9F
:103770008280130580FA8280014582800145828023
:103780008280130580FA82800145828082806307EF
:10379000B50C9D4763E6A70C0A05175700001307F1
:1037A00067E93A951C41BA978287FD1513B5250044
:1037B000828089476388F50A99476387F50ADDE5C2
:1037C000054582808D476385F50ACDC59947638499
:1037D000F50001458280054582809387C5FF054736
:1037E000637CF7089947638BF5089D47638AF50862
:1037F00089476384F50001458280054582809547AD
:103800006382F50899476381F50863EAB700894741
:10381000638EF5068D47639DF506054582809D47BD
:10382000639AF5060545828091476387F5069947B7
:103830006386F5069D476385F50689476384F50031
:103840000145828005458280E51513B5150082800B
:1038500089476389F504A9E9054582800545828089
:103860000145828005458280054582800145828030
:103870000545828005458280054582800545828018
:103880000545828005458280054582800545828008
:103890000145828001458280054582800545828000
:1038A0000545828005458280014582807DC583472C
:1038B0000500F5C7FDC51307D0026388E7021307AB
:1038C000B0026387E702054303470500930700033F
:1038D0006303F702294683470500F1C76354600478
:1038E000B7080080FD180147B5A005057D53E9BF65
:1038F00005050543D1BF930615008347150013073F
:103900008007638AE700130780056386E70099C78D
:1039100036852146C9B70905414675BF23A0050074
:1039200001458280B70800807DBF9386F7F993F642
:10393000F60F15486361D804938797FA63F9C706B1
:10394000B386F840B3D6C60263E5E6063307E6025F
:103950003E970505834705008DCB930600026386DD
:10396000D702938607FD93F6F60F2548E36FD8FA42
:10397000938707FDE1B79386F7FB93F6F60F15489B
:103980006365D802938797FC55BF6355600098C163
:10399000014582803307E040DDBF7D5582807D5543
:1039A00082807D5582807D5582807D5582807D55C7
:1039B00082807D55828019E993173500AA978A077E
:1039C00017E5FF1F130505983E95828017B5FFFF89
:1039D0001305A564828019C9411106C6EFE06FE6A0
:1039E000634B0500C93FB2404101828017B5FFFF1C
:1039F0001305A562828017B5FFFF1305D561E5B7F2
:103A000019C9411106C6EFE0EFEC634B05006537BD
:103A1000B2404101828017B5FFFF13050560828027
:103A200017B5FFFF1305355FE5B7411106C66137CE
:103A3000B240410182800DE517B5FFFF1305E55D3A
:103A400082802685EFE00FDE19C5484509C5A285AD
:103A5000EF30207F19C1850419A82685A93F31A818
:103A6000411106C622C426C24AC02A848144E35AB0
:103A700090FC17B5FFFF1305155AB240224492443B
:103A800002494101828019C9411106C6EFE0CFDF2A
:103A9000634B05000D37B2404101828017B5FFFF2F
:103AA0001305A557828017B5FFFF1305D556E5B757
:103AB00019CD1C4189CF03C7470219CFDC4B89CFF1
:103AC000411106C68843C53DB2404101828017B509
:103AD000FFFF13058554828017B5FFFF1305B5530B
:103AE000828025C1011106CE22CC26CA4AC84EC604
:103AF00052C4AE89328A0329050063060904B1C5A0
:103B000039C60144834739026354F402832409010E
:103B100093173400BE94CE858840EF30807219C16F
:103B20000504CDB7D285C840513301C5295511A030
:103B30002955F2406244D2444249B249224A0561C1
:103B40008280295582802955EDB72955DDB7295541
:103B5000CDB71D7186CEA2CCA6CACAC8CEC6D2C465
:103B6000D6C255CDAE8A328AB68903290500630ACA
:103B7000090AD5C95DCA635CD00A0144834739028A
:103B80006350F4028324090193173400BE94D68550
:103B90008840EF30006B19C10504CDB7CC4011A0AF
:103BA0008145C1C90149A1A0ADC32E8411A005045E
:103BB0008347040089C713070002E39AE7FEB304B2
:103BC000B4409307F00363E1970426860A85EF303B
:103BD000E06493870404B3842700238004FC9315D6
:103BE0002900D2950A85D93105E10509A28583C747
:103BF000050081CF635B390183C70500130700020D
:103C0000E394E7FA8505CDBF29594A85F640664415
:103C1000D6444649B649264A964A256182802959A2
:103C2000EDB72959DDB72959CDB72959F9BF295918
:103C3000E9BF2959D9BF31CD011106CE22CC26CA00
:103C40004AC84EC652C4AE89328A032905006304AD
:103C50000904A1C529C60144834739026352F4020D
:103C60008324090193173400BE94CE858840EF3039
:103C7000405D19C10504CDB7DC402320FA0011A036
:103C80002955F2406244D2444249B249224A056170
:103C90008280295582802955EDB72955DDB72955F0
:103CA000CDB711CD89CD011106CE7000693709CD90
:103CB00017B5FFFF13056536F2400561828017B521
:103CC000FFFF13058535828032451D3BF5B7411155
:103CD00006C6013DB2404101828005C51C4185C731
:103CE0000DC663C6050203C7570263D4E502984FA9
:103CF0001DC393971500AE978A073E9718C20145DA
:103D000082802955828029558280295582802955B3
:103D10008280295582802955828005C51C4185C72E
:103D20000DC663C6050203C7670263D4E502D84F18
:103D30001DC393971500AE978A073E9718C2014599
:103D40008280295582802955828029558280295573
:103D50008280295582802955828001CD97B7FFFF47
:103D60009387472A6376F500084101C508418280A0
:103D70000145828001CD97B7FFFF9387A72863761F
:103D8000F500084101C5084582800145828009C9C6
:103D900097B7FFFF938707276376F5004841828036
:103DA000014582800145828001CD97B7FFFF93874F
:103DB00067256379F5001C4181CB03C5170282801A
:103DC000054582800545828005458280411106C6F1
:103DD00022C426C205CD2A84AE84084911C59305A4
:103DE0004006EFF0CFB00DE5A68548404D3209CD35
:103DF00044C08144084819C1EFF04FB52685B24050
:103E00002244924441018280A954EDB7A954FDB7E0
:103E1000C154EDB701C50CC501458280295582808A
:103E200001C5084519C5828017B5FFFF1305E51EBA
:103E3000828017B5FFFF1305151EF5B7411106C6A1
:103E4000EFE0EF9F6357A0000145B536B240410156
:103E5000828017B5FFFF1305151CCDBF11CD411191
:103E600006C622C426C2AA8497B7FFFF9387871984
:103E70006379F50001441DA017B5FFFF1305E5198F
:103E8000828017B5FFFF13054519B24022449244C2
:103E90004101828022850536CDBF0504EFE02F9ACF
:103EA0006350A4022285013EE399A4FE0504EFE0DD
:103EB0000F99E341A4FE17B5FFFF1305D515F1B720
:103EC00017B5FFFF13056515C9B7411106C6EFE029
:103ED0000F97B2404101828009CD084909CD4111B7
:103EE00006C693054006EFF08FA001E9B2404101FC
:103EF000828029558280415582804155C5BF19C9AC
:103F0000084919C9411106C6EFF04FA401E9B240B2
:103F10004101828029558280295582806D55C5BF17
:103F2000411106C622C426C24AC035C52A842E893C
:103F30006537AA843DE15C449DCBD8431DC75440FE
:103F40001146638AC6020D46639AC60205CFCA852A
:103F500022850297AA8485CC228555372685B240D2
:103F6000224492440249410182809443E9FA228525
:103F70007937ED54E5B722855937CDB722854137DA
:103F8000ED54E9BF9C4322858297AA84E9B7914505
:103F900022852D3DD1B7A954D1B7C154C1B7411124
:103FA00006C622C426C229C52A843D3721E55C44C1
:103FB00085C7984715C35C40F117854663E2F60252
:103FC00022850297AA840DC12285153F2685B2401D
:103FD000224492444101828022851537ED54FDB779
:103FE0002285313FED54DDB78D452285C533E9BFCC
:103FF000A954E9BFC154D9BF011106CE22CC26CAAB
:104000004AC84EC639C12A84AE843289B689E93598
:104010001DED5C449DC7DC478DC75440114763923A
:10402000E602CE864A86A68522858297AA842285C4
:10403000F9352685F2406244D2444249B2490561CD
:10404000828022856D3DED54EDB7A954DDB7C15492
:10405000CDB7011106CE22CC26CA4AC84EC639C1F8
:104060002A84AE843289B689853D1DED5C449DC7A6
:104070009C4B8DC7544011476392E602CE864A8618
:10408000A68522858297AA842285953D2685F240C1
:104090006244D2444249B249056182802285853515
:1040A000ED54EDB7A954DDB7C154CDB7011106CE1B
:1040B00022CC26CA4AC84EC652C431C52A842E8A8A
:1040C000B2843689BA89093D29E15C448DCBDC4B49
:1040D0009DC7544011476394E6024E87CA862686E0
:1040E000D28522858297AA842285113D2685F240B9
:1040F0006244D2444249B249224A05618280228503
:10410000FD3BED54E5B7A954D5B7C154C5B741112E
:1041100006C622C426C24AC029C52A84753BAA8481
:1041200039E1584091476316F7025C4499C79C4FA8
:1041300089C7228582972A890DE1954522857931A3
:104140002285753B2685B2402244924402494101B2
:10415000828022856D33ED54F5B722854D33CA84B4
:10416000D5B7A954C5B7C154F1BF411106C622C481
:1041700026C24AC029C52A848533AA8439E1584019
:1041800095476316F7025C4499C7DC4F89C72285BF
:1041900082972A890DE1914522850D392285853343
:1041A0002685B24022449244024941018280228500
:1041B000B933ED54F5B722859933CA84D5B7A954DC
:1041C000C5B7C154F1BF1DCD411106C622C42A8412
:1041D000213309C5B2402244410182809D45228598
:1041E000F5362285293BA2850D45EF00006D22851D
:1041F000E5316DF181452285313923260400228580
:10420000FD39C9BF828019C15105828017B5FFFFF2
:104210001305A5E0828001C9411106C65105212A76
:10422000B240410182808280011106CE22CC26CA92
:10423000014463518002EFD09FE0D14763CBA70CCC
:10424000EFD0FFDF6357A00E0145F2406244D24435
:10425000056182802285EFD0FFDCAA8493173400A9
:10426000A2978A0717D7FF1F1307C70DBA9788C3EE
:1042700031CD8346050217D5FF1F1305A50C131773
:104280003400B30787008A07AA97D4C323A4070082
:1042900023A6070023A8070023A0070222970A07E6
:1042A00041073A9511055D2885C093173400A29700
:1042B0008A0717D7FF1F1307E708BA97DC4389C798
:1042C00083C72402858B89C70504A5B7814665B7D6
:1042D00002C6931574001306000897D7FF1F938733
:1042E000A708BE956800EFE03FD811ED93173400A2
:1042F000A2978A0717D5FF1F1305C5043E95B2473D
:104300001CC9113FD1B7175500001305A59AEFE05E
:10431000AFA4EFD0DFD2AA8661471756000013067C
:10432000E69B975500009385A59E0545EFF0AFB23B
:1043300001BF6D5519BF15C10F00500F2F20050883
:10434000930745000F00500F2FA00708854713075C
:1043500085000F00500F2F20F70882800DC10F003D
:10436000500F2F200508930745000F00500F2FA076
:104370000708930785000F00500F2FA007088280C1
:1043800009C508450F00F00F82800145828019C5DC
:1043900008410F00F00F6345050082800145E5BF2D
:1043A0000145E5BF19C548410F00F00F6345050001
:1043B00082800145E5BF0145E5BF05C91841634855
:1043C000070210450F00F00F85476314F60213062D
:1043D0001700AF2705106395E700AF25C51CF5F959
:1043E000E39EE7FC13B5170082802955828035557E
:1043F000828035558280828011C5FD570F00500F95
:104400002F20F500828005C518416354E002130691
:10441000F7FFAF2705106395E700AF25C51CF5F939
:10442000E394E7FE1385F7FF1335150082802955C5
:1044300082806D55828082800DC9130745005C41E2
:1044400063C7070210450F00F00F85466313D602BD
:1044500013861700AF2607106395F600AF25C71C1B
:10446000F5F9E39CF6FC014582802955828035559B
:1044700082803555828001C9FD57130745000F0022
:10448000500F2F20F700828001C98947130785004C
:104490000F00500F2F20F708828041C5411106C63A
:1044A00022C426C24AC02A84AE8418450F00F00FE9
:1044B0008947631AF706EFE0BFA32A897D57AF2724
:1044C000041081E7AF26E41CFDFA9DEF930744003A
:1044D000FD562FA7071001E72FA6D71C7DFA01EB89
:1044E0000145B24022449244024941018280FD5775
:1044F0006388F400EFE0DF9FB307254163F797027D
:104500000545EFE05F9FD9B7FD576388F400EFE002
:104510003F9EB307254163FD97000545EFE0BF9D32
:1045200071BF2955828041556DBF1305C0F855BF35
:104530001305C0F87DB719C5411106C60535B2404F
:10454000410182808280397106CE2ED232D436D695
:104550003AD83EDA42DC46DE4C102EC6EF3060061A
:10456000F24021618280AA8717D5FF1F03254500ED
:104570003DCD011106CE22CC328417D7FF1F034751
:10458000E7FE25CB03C781843DC73EC42EC619CAAA
:1045900036862C00EFE07FE919C90145F2406244FC
:1045A0000561828001462C00EFE0DFE5F5B797D783
:1045B000FF1F938767E30547938707192FA0E7003D
:1045C00019C01155E1BF97D6FF1F83A6E6FA93F7EE
:1045D0007600E5FBFDD6174600001306E673974507
:1045E0000000938565750545EFF0EF86D9BF5555F9
:1045F0008280555565B7555555B72571232E11182D
:10460000232C8118232A91187D562C0317D5FF1FC0
:10461000032505F6EFE05FE26308050E97D7FF1F5D
:1046200083A747F5F5C3EFD0BFF2EFD09FD817D5DA
:10463000FF1F0325A5F411C593054006EFE03FAB2E
:1046400019E597D4FF1F83A424F2814691A8174649
:1046500000001306266F974500009385E56D014520
:10466000EFE07FFF1745000013054571EFD0DFEE47
:1046700013964600930706193387270097D7FF1F25
:10468000938787D6B2978843CC439047DC47232C47
:10469000A7E6232EB7E62320C7E82322F7E88506FE
:1046A000E3E896FC17D5FF1F032545ED19C1EFE0A0
:1046B000FFA9014411A00504E37894F49317440082
:1046C000938707198A9703A707E875D78326811868
:1046D00093174400938707198A9783A787E7E3EC2A
:1046E000F6FC93174400938707198A9783A7C7E7B7
:1046F000E3E3D7FC93174400938707198A9783A5B0
:1047000047E82803029745BF17460000130686684E
:1047100097450000938545620945EFE0DFF3EFE040
:104720001FAA8320C11903248119832441191D6103
:104730008280411106C622C497D7FF1F83C707E3B3
:1047400099C701442285B240224441018280A1459B
:1047500013050004EFE03FBC97D7FF1F23AAA7E093
:1047600039C51306000697D5FF1F938565E117D558
:10477000FF1F1305A5E0EFE07F8D2A8429E597D779
:10478000FF1F83A7A7DFA1C3854717D7FF1F230FED
:10479000F7DC93060004174600001306666697458B
:1047A0000000938565590945EFE0FFEA61BF1746B0
:1047B00000001306A65F974500009385E557EFE0DC
:1047C0009FE9515441B7174600001306A66197456B
:1047D0000000938565560145EFE0FFE717D4FF1F02
:1047E000130484C003258418EFE09FBD232404181C
:1047F000515489BF011106CE22CC26CA4AC84EC6E2
:1048000052C4AA892E89B284368AEFE04FD659E97C
:1048100097D7FF1F83C797D5C1EBD1C817D5FF1F07
:104820000325C5D559C56368390993054006EFE0EE
:104830001F8C2A8415E997D7FF1F83A7E7D25D470E
:104840006362F70497D6FF1F938606BA1397470053
:104850003697232037012322270104C72326470147
:10486000850723A0F61805A0174600001306C65BAF
:10487000974500009385454C0145EFE0DFDD1304CB
:10488000C0F801A8115417D5FF1F032525CFEFE06D
:10489000FF8B2285F2406244D2444249B249224A07
:1048A000056182807D54F5B7130480FADDB7295481
:1048B000CDB72954F9BF2954E9BF411106C622C416
:1048C00026C22A84AE84EFE08FCA19E981460146E8
:1048D000A68522854939B240224492444101828012
:1048E0007D55D5BF411106C6B2860546AD39B240E9
:1048F0004101828017D5FF1F032505C8828097D705
:10490000FF1F83A727C791C3828097D7FF1F83A765
:1049100027C6FDDB411106C617D8FF1F130888C53F
:104920008147014797060000938666CD0546856559
:1049300093850580174500001305C552EFE01F87DA
:104940001DE517D5FF1F0325E5C215C1EFD0DFBD5B
:1049500085461746000013062653974500009385A9
:10496000A53D0945EFE03FCFB240410182801746A7
:1049700000001306A64F974500009385E53B0545CB
:10498000EFE07FCDD5B7011106CE22CC26CA97D451
:10499000FF1F83A424BEB1CC97D7FF1F9387C7A462
:1049A00023A6071809473AC402C601462C0003A5EE
:1049B0008718EFE03FA5014429A02945EFE0AFD3D8
:1049C00029042685EFE03F8009C59307301FE3F6F1
:1049D00087FE2685EFE02FFF15E117D4FF1F130494
:1049E000A4A02302041803258418EFE07F9D23244C
:1049F0000418F2406244D2440561828017460000E8
:104A00001306864A97450000938505330545EFE078
:104A10009FC42685EFE00FFBC9B7854717D7FF1F57
:104A2000A306F7B48280AA8715C59DC505CA1305DC
:104A3000F6FF718D15E58CC32392C7007D16239375
:104A4000C7000F00F00F239007040F00F00F239012
:104A500007088280295582802955828029558280C5
:104A6000295582801DCD835605080F00F00F83570E
:104A70000504139707014183958FC207C1838356AD
:104A8000450063F2D702144183576500F98F8A0706
:104A9000B6978CC305070F00F00F2310E5040145FE
:104AA00082802955828011558280011106CE22CC48
:104AB00026CA4AC84EC652C456C25AC02A892E8A2D
:104AC000B68999C2239006006306090A63060A0A9A
:104AD00055C6035409080F00F00F03570904931A31
:104AE000070193DA0A0183574900198C4204418077
:104AF0003E944204418049C46363C4003284035736
:104B0000690033775701998F93940701C18063EF50
:104B10008402032509000A0713162400D2853A955A
:104B2000EF20C06FA29A0F00F00F23105905638B7E
:104B30000904239089000145F2406244D24442496D
:104B4000B249224A924A024B05618280032509003C
:104B50000A07139B24005A86D2853A95EF20006CF1
:104B6000330694400A06B3056A0103250900EF20C5
:104B7000E06A4DBF2955C9B729557DBF29556DBF7D
:104B800011555DBF01454DBF0DCD95CD03570504B2
:104B90000F00F00F4207418383570508C207C18306
:104BA0006305F7021441035765007D8F0A073697A6
:104BB000184398C185070F00F00F2310F508014531
:104BC00082802955828029558280130530FC82809D
:104BD000011106CE22CC26CA4AC84EC652C456C2BD
:104BE0005AC0AA842E8AB68999C223900600C5C0ED
:104BF00063010A0A4DC203D404040F00F00F83D7E7
:104C00000408939A070193DA0A011D8C420441803B
:104C100049C46363C400328483D76400B3F7570187
:104C200003D944003309F940420913590901636E5D
:104C300089028C408A0713162400BE955285EF2006
:104C4000E05DA29A0F00F00F23905409638A0904D3
:104C5000239089000145F2406244D2444249B2495E
:104C6000224A924A024B056182808C408A07131BBC
:104C700029005A86BE955285EF20405A33062441BA
:104C80000A068C4033056A01EF2040595DBF295563
:104C9000D9B72955C9B729557DBF130530FC65BF64
:104CA000014555BF0DC195C1835705040F00F00F95
:104CB000C207C183035705080F00F00F998F239097
:104CC000F5000145828029558280295582800DC1D9
:104CD00095C183570508C207C183035705040F0018
:104CE000F00F998F93B717002380F500014582805C
:104CF00029558280295582800DC595C50357050821
:104D00000F00F00F83570504998FC207C183035723
:104D10004500B3B7E70093C717002380F5000145AE
:104D200082802955828029558280AA870DC995C91C
:104D30001DCA85CE1385F6FF758D15E98CC32392A8
:104D4000D7002393C700FD162394D7000F00F00F60
:104D5000239007040F00F00F239007088280295545
:104D60008280295582802955828029558280295543
:104D70008280797106D622D426D24AD04ECE52CC29
:104D800056CA5AC85EC662C42A89AE8AB68999C212
:104D9000239006006309090A63890A0A4DCA03546D
:104DA00009080F00F00F83570904139B0701135BD9
:104DB0000B01035749001D8C420441803A94420480
:104DC000418041C86363C400328483576900B30BD8
:104DD000F40283548900B3F46401B3849702338AE4
:104DE000E702330C9A40636F7C03032509005E865B
:104DF000D6852695EF208042229B0F00F00F2310CE
:104E00006905638A0904239089000145B250225440
:104E100092540259F249624AD24A424BB24B224C56
:104E200045618280032509006286D6852695EF209C
:104E3000E03E338644415E96B3858A01032509002E
:104E4000EF20C03D55BF2955D1B72955C1B72955C8
:104E500075BF115565BF014555BF797106D622D47E
:104E600026D24AD04ECE52CC56CA5AC85EC662C46A
:104E70002A84AE8A368A99C2239006005DC0638474
:104E80000A0A45C6835404040F00F00F8357040830
:104E9000139B0701135B0B019D8CC204C180C1C829
:104EA00063E3C400B28483576400B38BF4020359F4
:104EB0008400337969013389270303574400B38998
:104EC000E702338C2941636F7C030C405E86CA95F0
:104ED0005685EF20A034B38764010F00F00F231034
:104EE000F40863090A0423109A000145B2502254C1
:104EF00092540259F249624AD24A424BB24B224C76
:104F0000456182800C406286CA955685EF2000314B
:104F1000330639415E960C4033858A01EF2000301C
:104F20005DBF2955E1B72955D1B72955C1B713053B
:104F300030FC6DBF01455DBF15CD9DCD0357050804
:104F40000F00F00F8357050493960701C182998FD4
:104F5000C207C1830357450063F2E7021841835734
:104F60008500F58F83566500B387D702BA979CC139
:104F70000145828029558280295582801155828081
:104F800011C98357050485070F00F00F2310F5049E
:104F9000014582802955828015C99DC98357050422
:104FA0000F00F00FC207C183035705084207418372
:104FB0006382E702144183578500F98F0357650028
:104FC000B387E702B6979CC101458280295582804C
:104FD00029558280130530FC828011C9835705084A
:104FE00085070F00F00F2310F50801458280295531
:104FF00082800DC195C1835705040F00F00FC207D1
:10500000C183035705080F00F00F998F2390F50017
:105010000145828029558280295582800DC195C124
:1050200083570508C207C183035705040F00F00F1B
:10503000998F93B717002380F50001458280295589
:105040008280295582800DC595C5035705080F003C
:10505000F00F83570504998FC207C183035745009A
:10506000B3B7E70093C717002380F500014582809E
:105070002955828029558280411106C6B717014003
:1050800093870780630BF502B7170140938707C02A
:10509000630EF502B71701406303F504B71701402B
:1050A000938707406306F504B7270140938707807D
:1050B000630BF504B2404101828085451145EF0044
:1050C000D01E81451145EF00501EEDB785452145A5
:1050D000EF00B01D81452145EF00301DE1BF854542
:1050E0004145EF00901C81454145EF00101CD9B7A8
:1050F000854513050002EF00501B81451305000292
:10510000EF00B01A45BF854513050004EF00F01904
:10511000814513050004EF00501969BF411106C60F
:1051200085450545EF00701881450545EF00F017EE
:10513000B240410182809C4593F8F700C18B81C742
:10514000DC41B3E8F80083C70500A1CF03280500C0
:10515000014719A05CC905079D4763E2E70485473D
:10516000B397E70083D60500FD8EE396D7FE1316AE
:105170002700BD46B396C60093C6F6FF33F8060176
:105180003396C80033680601944513068002E38312
:10519000C6FC13068004E390C6FC1CC96DBF232027
:1051A000050103D705009307F00F63F1E706032815
:1051B0004500014739A09045930680046304D60456
:1051C00005079D4763E2E704930687008547B39789
:1051D000D70083D60500FD8EE394D7FE1316270073
:1051E000BD46B396C60093C6F6FF33F80601339664
:1051F000C80033680601904593068002E31DD6FA85
:105200005CC955BF1CC96DBF232205018280FD57B3
:105210002310F50089475CC191471CC582801C455D
:10522000FD8D99C105458280014582800845420572
:10523000418182805C45FD8D99C105458280014593
:10524000828048454205418182800CC982804CC9D8
:10525000828019C20CC982804CC982804CC5828070
:10526000C167CD8F1CCD0CCD1CCD1C4D1C4D82803B
:10527000B70601409C424167130707F8F98F1205F2
:105280005D8DC98D8CC2828001C9370701401C43E6
:1052900093E707081CC38280370701401C4393F73C
:1052A000F7F71CC382802A8663430504B7070140D1
:1052B000DC43135705013D8B93160501C182634CF6
:1052C000060237083000B3780501638C08073708F9
:1052D0001000337805016300080A0D483317E80011
:1052E0001347F7FF7D8FB707000FD98FBDA0B70712
:1052F0000140DC4F7DBF37083000B3780501638F74
:1053000008013708100033780501630108020D48D1
:105310003317E8001347F7FFF98F81A041070D48C5
:105320003317E8001347F7FFF98F05A81357550106
:105330001377F73F12073397E6001347F7FFF98F0C
:1053400029A8370700F17D17F98FB708014003A896
:1053500048003377E80023A2E80081C9558113751E
:10536000F53F12053397A600D98F6342060237072F
:1053700001405CC382801357550112073397E60042
:105380001347F7FF7D8FB707000FD98FF9B737079E
:1053900001405CCF828093F635008A063D47331783
:1053A000D70093F5C50FB7070140AE979047134755
:1053B000F7FF718F98C798473315D500498F98C765
:1053C000828009C9370701405C43B7068000D58F4A
:1053D0005CC38280B7060140DC42370780FF7D173F
:1053E000F98FDCC28280011106CE22CC26CA4AC8BF
:1053F00002C202C402C685451305C0078D2DB7F74A
:10540000FF1F83A7477093F7F7F037077130130733
:1054100087506380E71E3707713013078750636A30
:10542000F70837075230130787506383E7143707AD
:105430005C30130787506391E704930700F8231249
:10544000F1001304800422C64C0037150140E531F9
:10545000FD542312910022C64C003715014013055C
:105460000540D1392312910022C64C003725014056
:1054700013050580C93185AA3707503013078750B7
:105480006393E716ED572312F1001304800422C63C
:105490004C0037150140130505407139FD572312A3
:1054A000F10022C64C00372501401305058061310B
:1054B0001DAA37B77331130787506383E71637B7D1
:1054C0007531130787506397E7069307006023122F
:1054D000F1001304800422C64C00B7140140138568
:1054E000048091398567938707E02312F10022C673
:1054F0004C00138504C0813191678D172312F10090
:1055000022C64C00371501403D319307F0EF2312BE
:10551000F10022C64C001385044031399307F0078F
:105520002312F10022C64C003725014013050580E7
:10553000193155A837077330130787506395E70A69
:105540009307B0CF2312F1001304800422C64C004D
:105550003715014013050540F93EF9572312F100B4
:1055600022C64C003725014013050580E936A5A861
:10557000E9779387D7CD2312F1001304800422C664
:105580004C00B714014013850480753691472312EF
:10559000F100930780023EC64C00138504C0613EB3
:1055A0009307B0332312F10022C64C00138504C0C8
:1055B00059369307F0C32312F10022C64C00371569
:1055C0000140953E7D592312210122C64C001385CE
:1055D000044095362312210122C64C003725014094
:1055E00013050580893EF2406244D2444249056178
:1055F0008280ED572312F1001304800422C64C0070
:1056000037150140130505403D36FD572312F100C3
:1056100022C64C003725014013050580293EE1B71D
:105620009307003C2312F1001304800422C64C00AF
:1056300037150140093691679387B7EF2312F100C0
:1056400022C64C003715014013050540ED34930781
:10565000E0072312F10022C64C0037250140130554
:105660000580D13C49B7B71702409843136717002C
:1056700098C3D843B706FFF8758FD8C39843B706C9
:10568000F7FEFD16758F98C39843B706FCFFFD160D
:10569000758F98C3D843B70681FFFD16758FD8C3A1
:1056A0009843B70600ECFD16758F98C33707FF00C7
:1056B00098C723A607028280B71702409843C17695
:1056C000FD16758F98C39843B706FCFFFD16758FBE
:1056D00098C3C1676307F500B7070400630AF500C4
:1056E0008280371702401C43C166D58F1CC382805D
:1056F000371702401C43B7060500D58F1CC38280B4
:10570000371702401C4393F777F00E055D8D08C3F1
:10571000828001C9371702401C4393E717001CC35E
:105720008280371702401C43F99B1CC38280B71745
:105730000240DC4337F7FF1F0327C7709166758F60
:1057400019EB3707C1FF7D17F98F4D8D5D8DB717A9
:105750000240C8C382803707C3FF7D17F98FF5B7B2
:1057600009C9371702401C43B7060001D58F1CC377
:105770008280B71602409C42370700FF7D17F98FE1
:105780009CC28280371702405C43F19BC98F5CC387
:105790008280B7170240C8433189828037170240A0
:1057A0005C4393F7F7F0C98F5CC3828037170240E0
:1057B0005C4393F7F78FC98F5CC38280B7160240B2
:1057C000DC4271771307F77FF98F0E055D8DC8C234
:1057D000828089C93717024083479700C98FA30485
:1057E000F7008280B717024003C797001345F5FF03
:1057F000798DA384A7008280B7160240DC425177DE
:105800007D17F98FC98FDCC28280B71702402380D1
:1058100007022380070285476306F5009147630965
:10582000F5008280B717024005472380E702828097
:10583000B717024015472380E702828001C9371756
:1058400002405C5393E717005CD382803717024015
:105850005C53F99B5CD38280371702401C53C98F7D
:105860001CD3828001C9371702401C53A166D58F13
:105870001CD38280B71602409C5261777D17F98F46
:105880009CD28280B7170240DC43B18B1147638101
:10589000E70821476384E70899C7B7177A00938719
:1058A00007201CC131A0B7177A00938707201CC1BD
:1058B000371602405C429183BD8B97A6FF1F9386EB
:1058C0006675B69703C707001C41B3D7E7005CC1F4
:1058D000584221831D8B36970347070033D7E700D3
:1058E00018C558422D831D8BBA9603C70600B3D73F
:1058F000E7005CC5584239830D8B938681803697CB
:10590000034707001377F70FB3D7E7021CC982805C
:10591000B7177A00938707201CC159BF3717024079
:105920005C435843C166758FC983BD8B8907B7F641
:10593000FF1F83A6C6701166F18E85E6C546638695
:10594000D70481462DE33747024003270780418B68
:1059500039C337177A0013070720B387E7021CC142
:1059600061A88946638ED700BD46638DD700C146C6
:105970006380D70281464546E396C7FCC147D9B745
:10598000C947F5B78546B547FDB78146C9475DBFED
:105990008146BD4745BF37173D0013070790B387C2
:1059A000E7021CC191A83717024058574166718F12
:1059B00059C3B7150240D05511823D8A05063717E5
:1059C0007A00130707203357C70218C1D055218228
:1059D0003D8A0DEA131627003297058318C110413E
:1059E0003717024058573D8B05073357E60218C159
:1059F0001841B307F7021CC1E38C06EA1C418583FA
:105A00001CC17DB58545630AB600BD45630FB60070
:105A100009063307C70218C1D9B7131617003A96FB
:105A20000E063297058318C15DBF13162700329703
:105A30000A0718C16DB73717024050573D8A05064F
:105A400037177A00130707203357C70218C14DB71D
:105A500099C5371702405C4BC98F5CCB82803717E2
:105A600002405C4B1345F5FFE98F5CCB828099C502
:105A7000371702401C4FC98F1CCF82803717024056
:105A80001C4F1345F5FFE98F1CCF828099C537174E
:105A900002405C4FC98F5CCF8280371702405C4F59
:105AA0001345F5FFE98F5CCF828099C53717024017
:105AB0005C47C98F5CC78280371702405C4713453B
:105AC000F5FFE98F5CC7828099C5371702401C4BF0
:105AD000C98F1CCB8280371702401C4B1345F5FF42
